:100000000C9462000C948A000C948A000C948A0070
:100010000C948A000C948A000C948A000C948A0038
:100020000C948A000C948A000C948A000C948A0028
:100030000C948A000C948A000C948A000C948A0018
:100040000C948E040C948A000C945C040C9436047A
:100050000C948A000C948A000C948A000C948A00F8
:100060000C94D8040C948A0000000000240027009F
:100070002A0000000000250028002B0000000000DE
:1000800023002600290004040404040404040202DA
:100090000202020203030303030301020408102007
:1000A0004080010204081020010204081020000012
:1000B0000008000201000003040700000000000027
:1000C0000000F70511241FBECFEFD8E0DEBFCDBF83
:1000D00011E0A0E0B1E0E2E5FFE002C005900D9282
:1000E000A836B107D9F722E0A8E6B1E001C01D9219
:1000F000AA3DB207E1F710E0C2E6D0E004C02197C4
:10010000FE010E94A107C136D107C9F70E943F0630
:100110000C94A7070C94000008950895AF92BF9225
:10012000CF92DF92EF92FF920F931F93CF93DF93C3
:100130006C017B018B01040F151FEB015E01AE18F2
:10014000BF08C017D10759F06991D601ED91FC9114
:100150000190F081E02DC6010995892B79F7C50141
:10016000DF91CF911F910F91FF90EF90DF90CF9093
:10017000BF90AF900895FC01538D448D252F30E042
:10018000842F90E0821B930B541710F0CF960895A4
:1001900001970895FC01918D828D981761F0A28DD1
:1001A000AE0FBF2FB11D5D968C91928D9F5F9F7397
:1001B000928F90E008958FEF9FEF0895FC01918D4D
:1001C000828D981731F0828DE80FF11D858D90E0BA
:1001D00008958FEF9FEF0895FC01918D228D892F57
:1001E00090E0805C9F4F821B91098F73992708953F
:1001F00085E292E00E94EC0021E0892B09F420E0E6
:10020000822F089580E090E0892B29F00E94F80069
:1002100081110C9400000895FC01A48DA80FB92F42
:10022000B11DA35ABF4F2C91848D90E001968F731E
:100230009927848FA689B7892C93A089B1898C913D
:10024000837080648C93938D848D981306C002888C
:10025000F389E02D80818F7D80830895EF92FF9256
:100260000F931F93CF93DF93EC0181E0888F9B8DD9
:100270008C8D98131AC0E889F989808185FF15C093
:100280009FB7F894EE89FF896083E889F9898081B6
:100290008370806480839FBF81E090E0DF91CF9185
:1002A0001F910F91FF90EF900895F62E0B8D10E0A7
:1002B0000F5F1F4F0F731127E02E8C8D8E110CC016
:1002C0000FB607FCFACFE889F989808185FFF5CF61
:1002D000CE010E940C01F1CFEB8DEC0FFD2FF11D33
:1002E000E35AFF4FF0829FB7F8940B8FEA89FB899E
:1002F00080818062CFCFCF93DF93EC01888D8823FC
:10030000B9F0AA89BB89E889F9898C9185FD03C078
:10031000808186FD0DC00FB607FCF7CF8C9185FF5D
:10032000F2CF808185FFEDCFCE010E940C01E9CF95
:10033000DF91CF910895833081F028F4813099F0D6
:100340008230A9F008958730A9F08830C9F0843050
:10035000B1F4809180008F7D03C0809180008F7701
:1003600080938000089584B58F7784BD089584B507
:100370008F7DFBCF8091B0008F778093B000089580
:100380008091B0008F7DF9CFCF93DF93282F30E09D
:10039000F901E255FF4F8491F901E656FF4FD491E0
:1003A000F901EA57FF4FC491CC23A1F081110E94BB
:1003B0009B01EC2FF0E0EE0FFF1FE458FF4FA591DB
:1003C000B491EC91ED2381E090E009F480E0DF91BD
:1003D000CF91089580E090E0FACF1F93CF93DF9301
:1003E000282F30E0F901E255FF4F8491F901E656DC
:1003F000FF4FD491F901EA57FF4FC491CC23A9F0E4
:10040000162F81110E949B01EC2FF0E0EE0FFF1FD1
:10041000EE58FF4FA591B4918FB7F894EC9111115C
:1004200008C0D095DE23DC938FBFDF91CF911F9161
:100430000895DE2BF8CFCF93DF9390E0FC01E656D2
:10044000FF4F24918A579F4FFC0184918823D1F05C
:1004500090E0880F991FFC01E859FF4FA591B491D6
:10046000FC01EE58FF4FC591D49161110EC09FB7AA
:10047000F8948C91E22FE0958E238C932881E223CF
:10048000E8839FBFDF91CF9108958FB7F894EC91E7
:10049000E22BEC938FBFF6CF3FB7F8948091160212
:1004A00090911702A0911802B091190226B5A89B4D
:1004B00005C02F3F19F00196A11DB11D3FBFBA2FF6
:1004C000A92F982F8827BC01CD01620F711D811DB6
:1004D000911D42E0660F771F881F991F4A95D1F73B
:1004E00008958F929F92AF92BF92CF92DF92EF9238
:1004F000FF924B015C010E944C026B017C010E9447
:100500004C026C197D098E099F09683E7340810574
:100510009105A8F321E0821A9108A108B10888EE9C
:10052000C80E83E0D81EE11CF11C81149104A104C3
:10053000B10429F7FF90EF90DF90CF90BF90AF907C
:100540009F908F900895089585ED8093BC008091D1
:10055000BC0084FDFCCF1092200208952091A801D8
:10056000260F3327331F21323105ECF4209120026E
:10057000FC0190E080E0243069F082E00895A091D1
:10058000A8012191AC0148575E4FA40FB52FB11DB2
:100590002C930196861798F38091A801680F6093B9
:1005A000A80180E0089581E008950895E091240273
:1005B00080912302E81730F4F0E0E859FE4F808183
:1005C00090E008958FEF9FEF08959091240280911D
:1005D00023022FEF3FEF981748F4E92FF0E0E85996
:1005E000FE4F208130E09F5F90932402C90108955F
:1005F0008091230290912402891B990B0895CF9238
:10060000DF92EF92FF920F931F93CF93DF937C01C2
:10061000CB018A012091EF01222389F0EB016B01CC
:10062000C40ED51ECC15DD0569F06991D701ED9199
:10063000FC910190F081E02DC7010995F3CF642F63
:100640000E94AE02C801DF91CF911F910F91FF90E0
:10065000EF90DF90CF900895CF93DF931F92CDB7A7
:10066000DEB769832091EF012223F9F02091210266
:10067000203258F021E030E0FC013383228390E007
:1006800080E00F90DF91CF91089580912202E82FB2
:10069000F0E0E051FE4F998190838F5F80932202BA
:1006A0008093210281E090E0ECCF61E0CE010196E1
:1006B0000E94AE02F7CFCF93FC01C48121E02093CA
:1006C000EF01C09310021092220210922102838542
:1006D000682B82EC92E00E942C03909121029132CF
:1006E00008F03FC0809120028111FCCF82E080930E
:1006F000200281E080931F028FEF8093EE01109221
:10070000ED019093EC01A0EFB1E0ECECF1E080E0C2
:1007100098132FC01092CB018091CB01CC0FC82B26
:10072000C093CB0180911E02813039F510921E02D8
:100730008091CB018093BB008091BC0083FDF8CFFA
:1007400085EC8093BC00809120028230E1F380919F
:10075000EE018F3F31F08091EE01803211F08091F7
:10076000EE0110922202109221021092EF01CF911D
:1007700008952D9121938F5FCBCF85EEE2CF90E04E
:1007800080E00895FC0101900020E9F73197AF0166
:10079000481B590BBC018EEC92E00C948E000F9319
:1007A0001F93CF938C01C62F0E945B036C2F646054
:1007B000C8010E945B036C2F6B7FC8010E945B0322
:1007C00083EC90E00197F1F7CF911F910F9108957D
:1007D0000F931F93CF93DF938C01D62FC42F607F8D
:1007E000642B0E94CF0380E1D89FB00111246C2BB1
:1007F000C801DF91CF911F910F910C94CF03CF933C
:10080000DF93CDB7DEB728970FB6F894DEBF0FBEE3
:10081000CDBF98E0E0E0F1E0DE01119601900D928D
:100820009A95E1F79091D602981708F48FEF90E02F
:10083000880F991F21E030E02C0F3D1F820F931F7E
:10084000FC016081606840E08EEC92E028960FB673
:10085000F894DEBF0FBECDBFDF91CF910C94E803BB
:1008600041E00E94E80381E090E008951F920F921A
:100870000FB60F9211242F933F934F935F936F9373
:100880007F938F939F93AF93BF93EF93FF9385E2F3
:1008900092E00E940C01FF91EF91BF91AF919F9167
:1008A0008F917F916F915F914F913F912F910F9019
:1008B0000FBE0F901F9018951F920F920FB60F92B8
:1008C00011242F938F939F93EF93FF93E091350221
:1008D000F09136028081E0913B02F0913C0282FD72
:1008E0001BC0908180913E028F5F8F7320913F02E9
:1008F000821741F0E0913E02F0E0EB5DFD4F958FF5
:1009000080933E02FF91EF919F918F912F910F90D5
:100910000FBE0F901F9018958081F4CF1F920F92F9
:100920000FB60F9211242F933F938F939F93AF9302
:10093000BF938091120290911302A0911402B09182
:1009400015023091110223E0230F2D3758F501963F
:10095000A11DB11D209311028093120290931302E6
:10096000A0931402B0931502809116029091170281
:10097000A0911802B09119020196A11DB11D80939A
:10098000160290931702A0931802B0931902BF9118
:10099000AF919F918F913F912F910F900FBE0F902C
:1009A0001F90189526E8230F0296A11DB11DD2CFE6
:1009B0001F920F920FB60F9211242F933F934F93D4
:1009C0005F936F937F938F939F93AF93BF93EF93B7
:1009D000FF938091B900887F803609F44AC0F0F512
:1009E000883209F4A7C018F5803109F49BC0B8F427
:1009F000882309F4F9C0883009F494C0FF91EF917D
:100A0000BF91AF919F918F917F916F915F914F9126
:100A10003F912F910F900FBE0F901F901895883126
:100A200009F488C0803251F78093EE0114C08034FD
:100A300009F49DC040F48033B9F38833F9F680930C
:100A4000EE0185ECB0C0803509F485C0883509F425
:100A500096C0883499F60E94A402D0CF883909F450
:100A60008CC038F5883729F050F4883611F080377B
:100A700029F683E0809320021092CA0157C088387B
:100A800009F47BC0803919F0803809F0B7CF809124
:100A9000CA01803208F071C0E091CA0181E08E0F76
:100AA0008093CA018091BB00F0E0E655FE4F808341
:100AB0003DC0803B39F0E0F4803A09F479C0883ACF
:100AC00009F09CCF84E0809320021092A90110923B
:100AD000A801E0911C02F0911D0209958091A801E6
:100AE00081110FC081E08093A8011092880109C094
:100AF000803C09F4A6CF883C09F4A3CF883B09F0D9
:100B00007DCFE091A90181E08E0F8093A901F0E0F3
:100B1000E857FE4F80818093BB009091A90180919E
:100B2000A80129C08091CB018093BB0085EC809304
:100B3000BC0064CF9091ED018091EC01981758F5BD
:100B4000E091ED0181E08E0F8093ED01F0E0E45340
:100B5000FE4F8081E9CFE091ED0181E08E0F80931F
:100B6000ED018091BB00F0E0E453FE4F8083909153
:100B7000ED018091EC019817C8F285E8D8CFE0919B
:100B8000ED0181E08E0F8093ED018091BB00F0E0DC
:100B9000E453FE4F808380911F0281115CCF81E07E
:100BA00080931E0284EA8093BC001092200226CF1C
:100BB00085EC8093BC00109220028091CA018032A3
:100BC00030F4E091CA01F0E0E655FE4F10826091EA
:100BD000CA0170E0E0911A02F0911B028AEA91E0EA
:100BE00009951092CA010ACF1092EE0134CFE5E2C6
:100BF000F2E01382128288EE93E0A0E0B0E08483FA
:100C00009583A683B7832CE031E03183208325ECE4
:100C100030E03587248724EC30E03787268720ECC6
:100C200030E0318B208B21EC30E0338B228B22ECB7
:100C300030E0358B248B26EC30E0378B268B118E01
:100C4000128E138E148EE2ECF2E0138212828483F1
:100C50009583A683B7838EE191E091838083EEEC48
:100C6000F2E01382128280E391E09183808387E235
:100C7000848380E1818782E0828713860895789457
:100C800084B5826084BD84B5816084BD85B5826091
:100C900085BD85B5816085BD80916E008160809342
:100CA0006E001092810080918100826080938100AB
:100CB00080918100816080938100809180008160BB
:100CC000809380008091B10084608093B100809116
:100CD000B00081608093B00080917A00846080933E
:100CE0007A0080917A00826080937A0080917A0005
:100CF000816080937A0080917A00806880937A0086
:100D00001092C10060E086E00E941B0261E087E073
:100D10000E941B0261E088E00E941B02E091350204
:100D2000F091360282E08083E0913102F09132024C
:100D30001082E0913302F09134028FEC80831092A4
:100D40003D02E0913902F0913A0286E08083E09121
:100D50003702F0913802808180618083E091370210
:100D6000F0913802808188608083E0913702F091B1
:100D70003802808180688083E0913702F0913802E8
:100D800080818F7D80831092240210922302109222
:100D90002202109221021092200281E080931F0211
:100DA00010921E0261E082E10E94ED0161E083E1A8
:100DB0000E94ED018091B9008E7F8093B9008091EF
:100DC000B9008D7F8093B90088E48093B80085E4F2
:100DD0008093BC008CE890E090931D0280931C02ED
:100DE0008DE890E090931B0280931A021092D30238
:100DF0008091D802823018F098E09093D3028093CB
:100E0000D60262E370E080E090E00E94710260919F
:100E1000D9028EEC92E00E945B0368EE73E080E002
:100E200090E00E94710260E38EEC92E00E94CF039A
:100E3000CBE4D6E4CE010197F1F760E38EEC92E0CB
:100E40000E94CF032197F1F760E38EEC92E00E94BD
:100E5000CF0383E592E00197F1F760E28EEC92E038
:100E60000E94CF036091D302606240E08EEC92E07A
:100E70000E94E80384E08093D40240E06CE08EECB2
:100E800092E00E94E80340E061E08EEC92E00E9474
:100E9000E803CBE3DFE1CE010197F1F782E0809335
:100EA000D50240E066E08EEC92E00E94E80340E06C
:100EB00062E08EEC92E00E94E8032197F1F788E06F
:100EC0008093D90260E08EEC92E00E945B0380E0A8
:100ED0000E94FF0388E391E00E94C203C0E0D0E0DB
:100EE00086E00E94C401019779F481E00E94FF032B
:100EF00086E491E00E94C20361E088E00E94ED0177
:100F000061E087E00E94ED0186E00E94C401892B28
:100F100079F481E00E94FF0387E591E00E94C2031B
:100F200060E088E00E94ED0160E087E00E94ED0152
:100F30002097B1F20E94F800882391F20E940000ED
:100F4000CFCFEE0FFF1F0590F491E02D0994F89498
:020F5000FFCFD1
:100F52000000400014005400000000002E018E002A
:100F6200BB007B01EC00CA00DE00000000002C0385
:100F7200FF02BF03D502F802E502D602000000001C
:100F820030048E00BF03A30243616D206269656E67
:100F9200204761733A0042414F20444F4E475F570A
:100FA20041524E494E470042696E68207468756F1F
:080FB2006E67202020202000C2
:00000001FF
